:03000000020006F5
:03005F0002000399
:0300030002006296
:100062001201561201091200B87E327F00C2DEC2AE
:10007200953097FDD2DED2953097F230A40BEE4F39
:1000820060071EBEFF011F801CA2A4E4337D00F4A2
:10009200FCEDF4FD4C600EC3EE9464EF9400500549
:1000A2000EBE00010F8E828F83C007C0061200DAD7
:1000B200D006D00780C275D90275F20075E90075C5
:1000C200F90075E98875F90075CE8875CF00900042
:1000D200321200DA75DA422285823085833190004D
:1000E20078120282753064753100120259AE82AF05
:1000F200837478C39EFEE49FFF74882EFEE43F2043
:10010200DE028EEA8EFA224395045392FB4391203B
:100112005392DF53927F5392EF22AF8243E780756F
:10012200E50475E3008FE48530E275E64675E6B9CD
:1001320075E50053E77F22AF8243E78075E50575D9
:10014200E3008FE475E64675E6B975E50053E77F8F
:1001520085E28222758248120139E58254DFF53048
:1001620075824812011C758248120139E58254BF1A
:10017200F53075824812011C75824C120139758264
:100182004C120139C0AC75AC005395EB8595957551
:10019200AC015392EB439214D0ACC0AC75AC00539B
:1001A20095EB85959575AC015392EB439214D0ACC7
:1001B20053B1FC85B1B153B2FC43B238C0AC75AC9B
:1001C2000085B3B385B3B375AC02859292439201B5
:1001D200D0ACC0AC75AC0153B5FC85B5B575AC03FC
:1001E2005392FC439203D0ACC0AC75AC0243B4044E
:1001F200D0ACC0AC75AC0243B408D0ACC0AC75ACEA
:100202000243B410D0ACC0AC75AC0243B420D0AC45
:10021200C0AC75AC0243B440D0ACC0AC75AC0243C8
:10022200B480D0ACC0AC75AC0343B402D0ACC0ACAB
:1002320075AC08859292D0ACC0AC75AC098592922F
:10024200D0ACC0AC75AC07859292D0ACC0AC75ACEA
:100252000A859292D0AC227A10E4FBFCE58225E07A
:10026200F582E58333F583EB33FBEC33FCEB95301E
:10027200F5F0EC95314006FCABF0438201DADD2269
:06003500E478FFF6D8FD9F
:100013007900E94400601B7A009002A3780075A080
:1000230000E493F2A308B8000205A0D9F4DAF2754C
:02003300A0FF2C
:10028200E5828530F0A4C582C0F08531F0A4D0F0BB
:0D02920025F0C5838530F0A42583F5832277
:10003B007800E84400600A790075A000E4F309D861
:10004B00FC7800E84400600C7900900000E4F0A319
:04005B00D8FCD9FAFA
:0D00060075813112029FE582600302000344
:04029F007582002242
:00000001FF
