:03000000020006F5
:03005F0002000399
:0300030002006296
:1000620012013F1200F212009E7E327F002097049E
:10007200C29580F9D29530A4071EBEFF011F8013DE
:10008200A2A4E4337D00F4FCEDF4FD4C60050EBE49
:1000920000010F8E828F831200C280CD75D9027546
:1000A200F20075E90075F90075E98875F90075CEF9
:1000B2008875CF009000321200C275DA42D2DE2279
:1000C200753064753100120242AE82AF837401C38F
:1000D2009EF530E49FF53190007812026BE582853F
:1000E20083F02488FEE435F020DE028EEA8EFA22C6
:1000F2004395045392FB4391205392DF53927F53D3
:1001020092EF22AF8243E78075E50475E3008FE446
:100112008530E275E64675E6B975E50053E77F225C
:10012200AF8243E78075E50575E3008FE475E64627
:1001320075E6B975E50053E77F85E282227582484C
:10014200120122E58254DFF53075824812010575ED
:100152008248120122E58254BFF5307582481201AD
:100162000575824C12012275824C120122C0AC75B7
:10017200AC005395EB85959575AC015392EB439288
:1001820014D0ACC0AC75AC005395EB85959575ACAD
:10019200015392EB439214D0AC53B1FC85B1B153ED
:1001A200B2FC43B238C0AC75AC0085B3B385B3B30F
:1001B20075AC02859292439201D0ACC0AC75AC0191
:1001C20053B5FC85B5B575AC035392FC439203D08D
:1001D200ACC0AC75AC0243B404D0ACC0AC75AC02DC
:1001E20043B408D0ACC0AC75AC0243B410D0ACC0C0
:1001F200AC75AC0243B420D0ACC0AC75AC0243B415
:1002020040D0ACC0AC75AC0243B480D0ACC0AC75CD
:10021200AC0343B402D0ACC0AC75AC08859292D0AA
:10022200ACC0AC75AC09859292D0ACC0AC75AC07D1
:10023200859292D0ACC0AC75AC0A859292D0AC22B9
:100242007A10E4FBFCE58225E0F582E58333F58351
:10025200EB33FBEC33FCEB9530F5F0EC95314006DB
:09026200FCABF0438201DADD225D
:06003500E478FFF6D8FD9F
:100013007900E94400601B7A0090028C780075A097
:1000230000E493F2A308B8000205A0D9F4DAF2754C
:02003300A0FF2C
:10026B00E5828530F0A4C582C0F08531F0A4D0F0D2
:0D027B0025F0C5838530F0A42583F583228E
:10003B007800E84400600A790075A000E4F309D861
:10004B00FC7800E84400600C7900900000E4F0A319
:04005B00D8FCD9FAFA
:0D000600758131120288E58260030200035B
:040288007582002259
:00000001FF
