:03000000020006F5
:03005F0002000399
:0300030002006296
:200062001200FF12007075EA8075FA8080F875D90275F20075E90075F90075E98875F900CE
:2000820075CE8875CF0090003212009475DA42D2DE22753064753100120202AE82AF8374E9
:2000A20001C39EF530E49FF53190007812022BE5828583F02488FEE435F020DE028EEA8EAF
:0300C200FA2222FD
:2000C500AF8243E78075E50475E3008FE48530E275E64675E6B975E50053E77F22AF824322
:1A00E500E78075E50575E3008FE475E64675E6B975E50053E77F85E282229D
:2000FF007582481200E2E58254DFF5307582481200C57582481200E2E58254BFF530758210
:20011F00481200C575824C1200E275824C1200E2C0AC75AC005395EB85959575AC0153921D
:20013F00EB439214D0ACC0AC75AC005395EB85959575AC015392EB439214D0AC53B1FC8565
:20015F00B1B153B2FC43B238C0AC75AC0085B3B385B3B375AC02859292439201D0ACC0AC03
:20017F0075AC0153B5FC85B5B575AC035392FC439203D0ACC0AC75AC0243B404D0ACC0AC80
:20019F0075AC0243B408D0ACC0AC75AC0243B410D0ACC0AC75AC0243B420D0ACC0AC75ACE1
:2001BF000243B440D0ACC0AC75AC0243B480D0ACC0AC75AC0343B402D0ACC0AC75AC0885CA
:2001DF009292D0ACC0AC75AC09859292D0ACC0AC75AC07859292D0ACC0AC75AC0A859292AC
:0301FF00D0AC225F
:200202007A10E4FBFCE58225E0F582E58333F583EB33FBEC33FCEB9530F5F0EC95314006C0
:09022200FCABF0438201DADD229D
:06003500E478FFF6D8FD9F
:200013007900E94400601B7A0090024C780075A000E493F2A308B8000205A0D9F4DAF27546
:02003300A0FF2C
:1D022B00E5828530F0A4C582C0F08531F0A4D0F025F0C5838530F0A42583F583221D
:20003B007800E84400600A790075A000E4F309D8FC7800E84400600C7900900000E4F0A3C5
:04005B00D8FCD9FAFA
:0D000600758131120248E58260030200039B
:040248007582002299
:00000001FF
