:0400000002002132A7
:01000B0032C2
:0100130032BA
:03001B00020216C8
:20007A00753001753101E4F532F533F534F535F536F537F538F539F53AD200D20102001EED
:03001E0002009A43
:20009A0012032B1201F012018B1202037E327F00E4B5310280277401B5310280127403B591
:2000BA00310280557404B53103020144020185C2DEC2B37530017402B531D580F9D2DED207
:2000DA00B37530007402B531C730900BEE4F60071EBEFF011F801120900EC3EE9464EF94A6
:2000FA000050050EBE00010F8E828F83C007C0061201B3D006D00780CB7E327F008F3074E6
:20011A0002B5310280030200AA7432B53806E4B5390280EB900032C007C0061201B38582B8
:20013A0038858339D006D00780D5D2DED2B37530007402B5310280030200AA30900BEE4FBB
:20015A0060071EBEFF011F801120900EC3EE9464EF940050050EBE00010F8E828F83C0078E
:20017A00C0061201B3D006D00780C67531040200AA75D90275F20075E90075F90075CE8842
:20019A0075CF0075E98875F9009000321201B385823885833975DA4222AE82AF838E3B8F38
:2001BA003C900078C007C006120457753B64753C0012042EAC82AD83D006D0077478C39C88
:2001DA00FCE49DFD74882CFCE43D20DE028CEA8CFA8E828F83224395045392FB43914053E3
:2001FA0092BF53927F5392EF2243895043A308D2AFD2AB758B2C758DCFD28E22C0E0C0D083
:20021A00C28F758DCF758B2C0534E4B5340205357403B5310F7414B53406E4B535028002FF
:20023A008002B2B3A2F89202200101B35004053A8003753A0074FE253A5004A2029200207A
:20025A000012A201200001B3500A0532E4B5321405338010A201200001B340080536E4B530
:20027A00360205377428B53406E4B535028002805DC3E5329414E5339400400EE530700530
:20029A00753101803C7531008037C3E5369402E5379400400E74049536E495374005753134
:2002BA0003801EC3E5369404E53794004005753104800EC3E5329414E533940050037531B9
:1702DA0002E4F534F535F536F537F532F533A2009201D0D0D0E03277
:2002F100AF8243E78075E50475E3008FE4853BE275E64675E6B975E50053E77F22AF8243E9
:1A031100E78075E50575E3008FE475E64675E6B975E50053E77F85E282226E
:20032B0075824812030EE58254DFF53B7582481202F175824812030EE58254BFF53B75823F
:20034B00481202F175824C12030E75824C12030EC0AC75AC005395EB85959575AC01539263
:20036B00EB439214D0ACC0AC75AC005395EB85959575AC015392EB439214D0AC53B1FC8537
:20038B00B1B153B2FC43B238C0AC75AC0085B3B385B3B375AC02859292439201D0ACC0ACD5
:2003AB0075AC0153B5FC85B5B575AC035392FC439203D0ACC0AC75AC0243B404D0ACC0AC52
:2003CB0075AC0243B408D0ACC0AC75AC0243B410D0ACC0AC75AC0243B420D0ACC0AC75ACB3
:2003EB000243B440D0ACC0AC75AC0243B480D0ACC0AC75AC0343B402D0ACC0AC75AC08859C
:20040B009292D0ACC0AC75AC09859292D0ACC0AC75AC07859292D0ACC0AC75AC0A8592927D
:03042B00D0AC2230
:20042E007A10E4FBFCE58225E0F582E58333F583EB33FBEC33FCEB953BF5F0EC953C40067C
:09044E00FCABF0438201DADD226F
:06005000E478FFF6D8FD84
:20002E007900E94400601B7A00900478780075A000E493F2A308B8000205A0D9F4DAF275FD
:02004E00A0FF11
:1D045700E582853BF0A4C582C0F0853CF0A4D0F025F0C583853BF0A42583F58322CE
:200056007800E84400600A790075A000E4F309D8FC7800E84400600C7900900000E4F0A3AA
:04007600D8FCD9FADF
:0D00210075813C120474E582600302001E2C
:04047400758200226B
:00000001FF
