:0400000002002132A7
:01000B0032C2
:0100130032BA
:03001B00020209D5
:20007A00753001753101E4F532F533F534F535F536F537F538F539F53AD200D20102001EED
:03001E0002009A43
:20009A0012031E1201E61201811201F67E327F00AD31BD00028021BD0102800EBD03028080
:2000BA0053BD040302013A02017BC2DEC2B37530017402B531DA80F9D2DED2B3753000749C
:2000DA0002B531CC30900BEE4F60071EBEFF011F801120900EC3EE9464EF940050050EBE4C
:2000FA0000010F8E828F83C007C0061201A9D006D00780CB7E327F008F307402B531917424
:20011A0032B53806E4B5390280F0900032C007C0061201A9858238858339D006D00780DACA
:20013A00D2DED2B37530007402B5310280030200AA30900BEE4F60071EBEFF011F80112023
:20015A00900EC3EE9464EF940050050EBE00010F8E828F83C007C0061201A9D006D00780F2
:20017A00C67531040200AA75D90275F20075E90075F90075CE8875CF0075E98875F90090D3
:20019A0000321201A985823885833975DA4222AE82AF838E3B8F3C900078C007C006120483
:2001BA004A753B64753C00120421AC82AD83D006D0077478C39CFCE49DFD74882CFCE43DCA
:2001DA0020DE028CEA8CFA8E828F83224395045392FB43B2085392FE5392FE2243895043C5
:2001FA00A308D2AFD2AB758B2C758DCFD28E22C0E0C0D0C28F758DCF758B2C0534E4B53439
:20021A000205357403B5310F7414B53406E4B5350280028002B2B3A2F89202200101B35019
:20023A0004053A8003753A0074FE253A5004A2029200200012A201200001B3500A0532E4B6
:20025A00B5321405338010A201200001B340080536E4B5360205377428B53406E4B535025F
:20027A008002805DC3E5329414E5339400400EE5307005753101803C7531008037C3E53661
:20029A009402E5379400400E74049536E495374005753103801EC3E5369404E537940040CB
:2002BA0005753104800EC3E5329414E53394005003753102E4F534F535F536F537F532F514
:0A02DA0033A2009201D0D0D0E03230
:2002E400AF8243E78075E50475E3008FE4853BE275E64675E6B975E50053E77F22AF8243F6
:1A030400E78075E50575E3008FE475E64675E6B975E50053E77F85E282227B
:20031E00758248120301E58254DFF53B7582481202E4758248120301E58254BFF53B758273
:20033E00481202E475824C12030175824C120301C0AC75AC005395EB85959575AC01539297
:20035E00EB439214D0ACC0AC75AC005395EB85959575AC015392EB439214D0AC53B1FC8544
:20037E00B1B153B2FC43B238C0AC75AC0085B3B385B3B375AC02859292439201D0ACC0ACE2
:20039E0075AC0153B5FC85B5B575AC035392FC439203D0ACC0AC75AC0243B404D0ACC0AC5F
:2003BE0075AC0243B408D0ACC0AC75AC0243B410D0ACC0AC75AC0243B420D0ACC0AC75ACC0
:2003DE000243B440D0ACC0AC75AC0243B480D0ACC0AC75AC0343B402D0ACC0AC75AC0885A9
:2003FE009292D0ACC0AC75AC09859292D0ACC0AC75AC07859292D0ACC0AC75AC0A8592928B
:03041E00D0AC223D
:200421007A10E4FBFCE58225E0F582E58333F583EB33FBEC33FCEB953BF5F0EC953C400689
:09044100FCABF0438201DADD227C
:06005000E478FFF6D8FD84
:20002E007900E94400601B7A0090046B780075A000E493F2A308B8000205A0D9F4DAF2750A
:02004E00A0FF11
:1D044A00E582853BF0A4C582C0F0853CF0A4D0F025F0C583853BF0A42583F58322DB
:200056007800E84400600A790075A000E4F309D8FC7800E84400600C7900900000E4F0A3AA
:04007600D8FCD9FADF
:0D00210075813C120467E582600302001E39
:040467007582002278
:00000001FF
